:100000000C9434000C9449000C9449000C94490061
:100010000C9449000C9449000C9449000C9449003C
:100020000C9449000C9449000C9449000C9449002C
:100030000C9449000C9449000C9449000C9449001C
:100040000C9449000C9449000C9449000C9449000C
:100050000C9449000C9449000C9449000C944900FC
:100060000C9449000C94490011241FBECFEFD8E036
:10007000DEBFCDBF11E0A0E0B1E0EAE9F3E002C0ED
:1000800005900D92AA32B107D9F70E9459010C943C
:10009000CB010C9400001092C50087E68093C40049
:1000A00086E08093C20088E18093C100089590911A
:1000B000C00095FFFCCF8093C6000895CF93DF93D7
:1000C000EC0103C021960E94570088818111FACF6C
:1000D000DF91CF9108950F931F93CF93DF93CDB707
:1000E000DEB72A970FB6F894DEBF0FBECDBFAC01C6
:1000F000892B99F580E30E94570044C09A01ADEC2A
:10010000BCEC0E94BC01969587959695879596952F
:1001100087959C01220F331F880F991F880F991F05
:10012000880F991F820F931F9A01281B390BC90151
:10013000E1E0F0E0EC0FFD1FE00FF11F805D808338
:100140009A010E94BC01AC0156954795569547957A
:10015000569547950F5F1F4F02C000E010E0411514
:10016000510561F6015011090BC0E1E0F0E0EC0F20
:10017000FD1FE00FF11F80810E94570001501109FF
:1001800011239CF72A960FB6F894DEBF0FBECDBFA1
:10019000DF91CF911F910F9108958091C000882326
:1001A0001CF48091C600089580E0089580E395E7EF
:1001B000A0E0B0E004C00197A109B10911F04F9986
:1001C000FACF8BB18F7B8BB92AE02A95F1F700C06B
:1001D0008BB180648BB985E38A95F1F700008BB110
:1001E0008F7B8BB980E593ECA0E0B0E004C0019771
:1001F000A109B109F9F04F9BFACF80E090E0DC0152
:100200000DC00196A11DB11D25E02A95F1F7000052
:10021000893B28E89207A105B10578F44F99F1CF01
:10022000BC01CD012AE230E040E050E00E949A019A
:10023000C901089587EE93E0089588E793E0089553
:1002400082E8809380008AE1809381008FEC97E0C0
:100250009093870080938600109289001092880006
:100260000895811107C08BB184608BB98BB1877FF2
:100270008BB906C08BB18B7F8BB98BB188608BB982
:10028000709389006093880008958BB184608BB966
:100290008BB188608BB92FEF83ED90E321508040C4
:1002A0009040E1F700C00000109289001092880091
:1002B000089584B1826084B98AB18C648AB98AB1A4
:1002C0008F778AB90E9420010E944B0010E0C0E0A5
:1002D000D0E00E94CD00813331F46FEC77E0812FC4
:1002E0000E94310106C0803321F4109289001092DF
:1002F00088002196C0368AEED80758F30E94D600AF
:10030000EC0180E091E00E945E00CE010E946B0053
:1003100087E091E00E945E0021972997C0F68DE06A
:1003200091E00E945E000E94450181E0111180E091
:10033000182FCDCFA1E21A2EAA1BBB1BFD010DC0A9
:10034000AA1FBB1FEE1FFF1FA217B307E407F50785
:1003500020F0A21BB30BE40BF50B661F771F881F61
:10036000991F1A9469F760957095809590959B01F7
:10037000AC01BD01CF010895A29FB001B39FC001A0
:10038000A39F700D811D1124911DB29F700D811DC1
:0A0390001124911D0895F894FFCF89
:10039A00446973743A200020636D0D0A004F42537A
:1003AA005441434C45204445544543544544212037
:0A03BA004252414B45210D0A00009C
:00000001FF
